S013000050524F4A4543545F4D43322E73726563D9
S11300000C942A000C9434000C9434000C943400A6
S11300100C9434000C9434000C9434000C9434008C
S11300200C9434000C9434000C9434000C9434007C
S11300300C9405010C9434000C9434000C9434009A
S11300400C9434000C9434000C9434000C9434005C
S11300500C94340011241FBECFE5D8E0DEBFCDBF21
S11300600E94FC000C943E010C940000442319F0FF
S11300704130C9F10895813091F028F08230D9F0EF
S1130080833029F108952AB381E090E002C0880FFB
S1130090991F6A95E2F7809582238ABB089527B356
S11300A081E090E002C0880F991F6A95E2F780957D
S11300B0822387BB089524B381E090E002C0880FB7
S11300C0991F6A95E2F78095822384BB089521B332
S11300D081E090E002C0880F991F6A95E2F780954D
S11300E0822381BB0895813089F028F08230C9F0E1
S11300F0833011F108952AB381E090E002C0880FA3
S1130100991F6A95E2F7822B8ABB089527B381E091
S113011090E002C0880F991F6A95E2F7822B87BB93
S1130120089524B381E090E002C0880F991F6A9576
S1130130E2F7822B84BB089521B381E090E002C0F2
S1130140880F991F6A95E2F7822B81BB089581304D
S113015089F028F08230C9F0833011F108952BB36F
S113016081E090E002C0880F991F6A95E2F7822728
S11301708BBB089528B381E090E002C0880F991FDB
S11301806A95E2F7822788BB089525B381E090E061
S113019002C0880F991F6A95E2F7822785BB0895EC
S11301A022B381E090E002C0880F991F6A95E2F7BC
S11301B0822782BB089541E062E082E00E9436001B
S11301C0089562E082E00E94A700089541E067E09C
S11301D082E00E943600089567E082E00E94A70052
S11301E0089541E063E083E00E943600089563E0EF
S11301F083E00E94A70008950E9436010E94DB005C
S11302000E94E6000E94F100FFCF1F920F920FB6EA
S11302100F9211242F933F934F935F936F937F9388
S11302208F939F93AF93BF93EF93FF938FB18133DA
S113023019F40E94E10009C0823319F40E94EC0011
S113024004C0833311F40E94F700FF91EF91BF9132
S1130250AF919F918F917F916F915F914F913F915A
S11302602F910F900FBE0F901F901895BD98BE9AB6
S1130270BF98BC98789483EE8DB90895F894FFCF15
S9030000FC
