S013000050524F4A4543545F4D43312E73726563DA
S11300000C942A000C9434000C9434000C943400A6
S11300100C9434000C9434000C9434000C9434008C
S11300200C9434000C9434000C9434000C9434007C
S11300300C9434000C943B000C9434000C94340065
S11300400C9434000C9434000C9434000C9434005C
S11300500C94340011241FBECFE5D8E0DEBFCDBF21
S11300600E9436000C947A000C9400000E946D00EB
S11300700E946100FFCF1F920F920FB60F921124BE
S11300802F933F934F935F936F937F938F939F939C
S1130090AF93BF93EF93FF938CB181110E946900DA
S11300A0FF91EF91BF91AF919F918F917F916F914C
S11300B05F914F913F912F910F900FBE0F901F9022
S11300C01895BD9ABE98BF9ABC9A789483EF8DB95F
S11300D008958FB9779BFECF0895899A889878946C
S11300E01AB880E98AB910BC86E880BD87E689B968
S10B00F010BC0895F894FFCF41
S9030000FC
